:020000040000FA
:03000000020800F3
:0300730002093F40
:10080000787FE4F6D8FD7581200208470208CCE421
:1008100093A3F8E493A34003F68001F208DFF48089
:1008200029E493A3F85407240CC8C333C4540F44D9
:1008300020C8834004F456800146F6DFE4800B01B3
:100840000204081020408090094EE47E019360BCB1
:10085000A3FF543F30E509541FFEE493A360010E4B
:10086000CF54C025E060A840B8E493A3FAE493A372
:10087000F8E493A3C8C582C8CAC583CAF0A3C8C593
:1008800082C8CAC583CADFE9DEE780BEE4F5D3903B
:100890000000E024F970280509E5097002050864E4
:1008A000324508701AF50AF50B7F78120926050BF8
:1008B000E50B7002050AC39464E50A940040EA90CF
:1008C0000000E004F0E0B40A02E4F022E5EF20E1E9
:1008D00006E5EF30E30100120902E4F5D3D2AF30B0
:1008E00000FDC20012088C80F6E59154045391FB80
:1008F0007595DF7594727593DF7592734391044219
:1009000091221209141209361209551209591208B6
:10091000E9020947E4F5A753D9BF75D22275D8403B
:1009200043D940F5D3221F800700000000000000DB
:10093000DFF70000002275A914E5A930E7FB225378
:10094000917FD200B2903275E68075A880220208AD
:0D0950000000C1000075A5012275E34022E2
:00000001FF
