:020000040000FA
:03000000020800F3
:030073000209C0BF
:10080000787FE4F6D8FD758120020847020939E4B3
:1008100093A3F8E493A34003F68001F208DFF48089
:1008200029E493A3F85407240CC8C333C4540F44D9
:1008300020C8834004F456800146F6DFE4800B01B3
:10084000020408102040809009A3E47E019360BC5C
:10085000A3FF543F30E509541FFEE493A360010E4B
:10086000CF54C025E060A840B8E493A3FAE493A372
:10087000F8E493A3C8C582C8CAC583CAF0A3C8C593
:1008800082C8CAC583CADFE9DEE780BEE4FF43A6AB
:1008900004C2A20020A3037E310F20A5037E340FE3
:1008A00020A6037E370F20A4037E2A0FD2A253A6D0
:1008B000FB43A602C2A10020A3037E320F20A503A2
:1008C0007E350F20A6037E380F20A4037E300FD282
:1008D000A153A6FD43A601C2A00020A3037E330FAF
:1008E00020A5037E360F20A6037E390F20A4037EA9
:1008F000230FD2A053A6FEEF7002FF22EF6401AFD8
:100900000660027F7F22E4F5D3900000E0701D12A4
:1009100009CEEF700BE5096007F508E4F5098005DD
:10092000EF6002F509E5086003E4F508900000E0D7
:1009300004F0E0B40A02E4F022E5EF20E106E5EF7E
:1009400030E3010012096FE4F5D3D2AF3000FDC2ED
:100950000012090680F6E59154045391FB7595DF6A
:100960007594727593DF75927343910442912212CC
:1009700009811209B01209C61209CA1209560209E0
:10098000B9E4F5A753D9BF75D22275D84043D940F1
:10099000F5D3221F800700000000000000DFF700F1
:1009A000000022010800010900020A0000C1000045
:1009B00075A914E5A930E7FB2275E68075A88022A9
:1009C00053917FD2003275A5012275E340221208AF
:0209D0008C2277
:00000001FF
