:020000040000FA
:03000000020800F3
:030073000208F48C
:10080000787FE4F6D8FD7581200208470208C7E426
:1008100093A3F8E493A34003F68001F208DFF48089
:1008200029E493A3F85407240CC8C333C4540F44D9
:1008300020C8834004F456800146F6DFE4800B01B3
:100840000204081020408090090BE47E019360BCF4
:10085000A3FF543F30E509541FFEE493A360010E4B
:10086000CF54C025E060A840B8E493A3FAE493A372
:10087000F8E493A3C8C582C8CAC583CAF0A3C8C593
:1008800082C8CAC583CADFE9DEE780BEE5915404A9
:100890005391FB7595DF7594727593DF7592734371
:1008A00091044291221208E11208EB120903120985
:1008B0000712088C0208FC1F8007000000000000DF
:1008C00000DFF7000000221208A5D2AF3000FDC201
:1008D000001208D680F60508E508B40A03E4F50816
:1008E00022E4F5A753D9BF75D2022275A914E5A950
:1008F00030E7FB2253917FD200B2903275E68075CB
:0E090000A8802275A5012275E34022C10000E7
:00000001FF
