:020000040000FA
:03000000020C7F70
:03007300020F2554
:10080000E517240BF8E60517227808300702780B65
:10081000E475F001120C49020BF12000EB7F2ED29F
:10082000008018EF540F2490D43440D4FF30040BD0
:10083000EF24BFB41A0050032461FFE518600215CD
:1008400018051BE51B7002051A30070D7808E475C2
:10085000F001120C49EF020C37020F377403D20774
:100860008003E4C207F5178B088A09890AE4F518A2
:10087000F51AF51BE51860077F2012083B80F57517
:1008800019FFC201C200C202C203C205C206C208E9
:10089000120809FF700D3007057F0012084CAF1BCE
:1008A000AE1A22B4255FC2D5C204120809FF24D0B3
:1008B000B40A00501A75F00A781830D50508B6FF4A
:1008C0000106C6A426F620D5047002D20380D924DE
:1008D000CFB41A00EF5004C2E5D204020A4CD20190
:1008E00080C6D20080C0D20280BCD2D580BAD205E8
:1008F00080B47F2012083B2002077401B518004025
:10090000F1120800FF12083B020874D208D20680D8
:1009100095120800FB120800FA120800F94A4B7001
:1009200006791D7A0B7BFF20022EE518602A7E00D7
:100930008E82758300120C0A60060EEE651970F047
:10094000C2D5EBC0E0EAC0E0E9C0E0EE120A93D005
:10095000E0F9D0E0FAD0E0FB120BF1FF60AAEBC0A7
:10096000E0EAC0E0E9C0E012083BD0E02401F9D0A1
:10097000E03400FAD0E0FBE5190460DCD519D98039
:10098000877BFF7A0A798FD202809C791080027966
:1009900008C206C2088008D2D5790A8004790AC242
:1009A000D5E519047002F519E4FAFDFEFF120800FE
:1009B000FC7B08200113120800FD7B1030000A1296
:1009C0000800FE120800FF7B20EC3382D592D55040
:1009D00013C3E43000069FFFE49EFEE42001039D64
:1009E000FDE49CFCE4CBF8C201EC700CCFCECDCC86
:1009F000E824F8F870F38017C3EF33FFEE33FEED11
:100A000033FDEC33FCEB33FB994002FB0FD8E9EBF1
:100A1000300105F8D0E0C448B201C0E00AEC4D4E08
:100A20004F78207B0070C2EAB5190040BCC0E012CC
:100A30000A95D0F0D0E0200104C4C0E0C4B201C0E7
:100A4000F0120824D0F0D5F0EB020874120C59090A
:100A50001153098B5808E24C08DE42098F4F099761
:100A60004409974908F743099D550981460981457D
:100A70000981470B3D5008E62D08EA2E090D2B0889
:100A8000EE23090B200B262A08A648000009053F83
:100A90003F3F00790AA2D5200314300509B910029E
:100AA0000404B9080104A2D5200602500104200262
:100AB000689202B518005034C0E07F203003197FDF
:100AC00030A20272067205500F120AECC202C20670
:100AD000C205C2087F30800F300503E9C0E012086C
:100AE0003B300503D0E0F9D0E0B518CC3005177FD6
:100AF00030B9100C12083B7F583004077F78800310
:100B0000B9080312083B3002057F2D02083B7F2005
:100B10002008F87F2B2006F322920280CF286E75E2
:100B20006C6C2900D2011208003001F8C20178185B
:100B300030D50108F60208A62D5043495812080086
:100B40002403B405004001E4900B389312082C7480
:100B50003A12082CD20375180402098BE590540F41
:100B60004430F590D29100C291E4F5087F64120EF2
:100B7000FC0508E508C3942A40F2E590540F443080
:100B8000F590D29100C2917F64120EFCE590540F53
:100B90004430F590D29100C2917F28120EFCE5906E
:100BA000540F4420F590D29100C2917F28120EFC80
:100BB00053900FD29100C2917F28120EFCE5905401
:100BC0000F44E0F590D29100C2917F28120EFC53A1
:100BD000900FD29100C2917F28120EFCE590540F25
:100BE0004460F590D29100C2917F28120EFCD293FE
:100BF00022BB010689828A83E0225002E722BBFEE3
:100C000002E32289828A83E49322BB010CE58229D4
:100C1000F582E5833AF583E0225006E92582F8E67D
:100C200022BBFE06E92582F8E222E58229F582E56B
:100C3000833AF583E49322BB010689828A83F022FA
:100C40005002F722BBFE01F322FAE6FB0808E6F9A0
:100C500025F0F618E6CA3AF622D083D082F8E4935B
:100C60007012740193700DA3A393F8740193F5822D
:100C70008883E4737402936860EFA3A3A380DF7892
:100C80007FE4F6D8FD758121020CC6020E75E4934F
:100C9000A3F8E493A34003F68001F208DFF480296F
:100CA000E493A3F85407240CC8C333C4540F44205E
:100CB000C8834004F456800146F6DFE4800B01024D
:100CC000040810204080900F15E47E019360BCA3BF
:100CD000FF543F30E509541FFEE493A360010ECF9B
:100CE00054C025E060A840B8E493A3FAE493A3F8C5
:100CF000E493A3C8C582C8CAC583CAF0A3C8C58285
:100D0000C8CAC583CADFE9DEE780BEE4F5D3900038
:100D100000E0146034047068120F33EF700BE51EAE
:100D20006007F51DE4F51E8005EF6002F51EE51D68
:100D3000604EB42A05E4F51DD20AE51DB42305E48E
:100D4000F51DD20BE4F51D8037200C07120EEAD2F8
:100D50000C802D200D07120B5CD20D8023300A1859
:100D6000C20AB2907BFF7A0E79511208627BFF7A39
:100D70000E7963120862B290300B05C20B120E920C
:100D8000900000E004F0E0B40A02E4F022E4FF4343
:100D9000A604C2A20020A3037E310F20A5037E3447
:100DA0000F20A6037E370F20A4037E2A0FD2A25362
:100DB000A6FB43A602C2A10020A3037E320F20A5FA
:100DC000037E350F20A6037E380F20A4037E300F4C
:100DD000D2A153A6FD43A601C2A00020A3037E33E7
:100DE0000F20A5037E360F20A6037E390F20A40313
:100DF0007E230FD2A053A6FEEF7002FF22EF640104
:100E0000AF0660027F7F22E590540FFEEF54F04E54
:100E1000F590D29100C291EFC454F0FFE590540FC9
:100E20004FF590D29100C2917F28020EFC8F1CE5F5
:100E30001CB40D06C2937F80800FE51CB40A06C265
:100E4000937FC08004D293AF1C120E07D2937F0011
:100E5000220D30313233343536373839414243444C
:100E60004546000A3031323334353637383941425D
:100E70004344454600E5EF20E106E5EF30E301009D
:100E8000120EC6E4F5D3D2AF300EFDC20E120D0B1A
:100E900080F6C2937F01120E07E4F5087FA4120EBC
:100EA000FC0508E508C3940A40F2D29322E5915468
:100EB000045391FB7595DF7594727593DF7592738A
:100EC000439104429122120ED8120F0C120F2B12D2
:100ED0000F2F120EAD020F1EE4F5A753D9BF75D226
:100EE0002275D84043D940F5D3224390F0D293C223
:100EF00091D29243A5F043A50EC293221F80070012
:100F0000000000000000DFF70000002275A914E5D2
:100F1000A930E7FB22011D00011E00C10E0075E68D
:100F20008075A8802253917FD20E3275A50122755B
:0B0F3000E34022120D8D22120E2D2234
:00000001FF
