:020000040000FA
:03000000020D539B
:030073000210DC9C
:10080000E539242DF8E6053922782A300702782DBB
:10081000E475F001120C88020C5D2000EB7F2ED2F3
:10082000008018EF540F2490D43440D4FF30040BD0
:10083000EF24BFB41A0050032461FFE53A600215AB
:100840003A053DE53D7002053C30070D782AE47518
:10085000F001120C88EF020C760210EE7403D2073E
:100860008003E4C207F5398B2A8A2B892CE4F53AF8
:10087000F53CF53DE53A60077F2012083B80F575B1
:100880003BFFC201C200C202C203C205C206C208C7
:10089000120809FF700D3007057F0012084CAF3DAC
:1008A000AE3C22B4255FC2D5C204120809FF24D091
:1008B000B40A00501A75F00A783A30D50508B6FF28
:1008C0000106C6A426F620D5047002D20380D924DE
:1008D000CFB41A00EF5004C2E5D204020A4CD20190
:1008E00080C6D20080C0D20280BCD2D580BAD205E8
:1008F00080B47F2012083B2002077401B53A004003
:10090000F1120800FF12083B020874D208D20680D8
:1009100095120800FB120800FA120800F94A4B7001
:1009200006791D7A0B7BFF20022EE53A602A7E00B5
:100930008E82758300120C0E60060EEE653B70F021
:10094000C2D5EBC0E0EAC0E0E9C0E0EE120A93D005
:10095000E0F9D0E0FAD0E0FB120C5DFF60AAEBC03A
:10096000E0EAC0E0E9C0E012083BD0E02401F9D0A1
:10097000E03400FAD0E0FBE53B0460DCD53BD980F5
:10098000877BFF7A0A798FD202809C791080027966
:1009900008C206C2088008D2D5790A8004790AC242
:1009A000D5E53B047002F53BE4FAFDFEFF120800BA
:1009B000FC7B08200113120800FD7B1030000A1296
:1009C0000800FE120800FF7B20EC3382D592D55040
:1009D00013C3E43000069FFFE49EFEE42001039D64
:1009E000FDE49CFCE4CBF8C201EC700CCFCECDCC86
:1009F000E824F8F870F38017C3EF33FFEE33FEED11
:100A000033FDEC33FCEB33FB994002FB0FD8E9EBF1
:100A1000300105F8D0E0C448B201C0E00AEC4D4E08
:100A20004F78207B0070C2EAB53B0040BCC0E012AA
:100A30000A95D0F0D0E0200104C4C0E0C4B201C0E7
:100A4000F0120824D0F0D5F0EB020874120C9809CB
:100A50001153098B5808E24C08DE42098F4F099761
:100A60004409974908F743099D550981460981457D
:100A70000981470B3D5008E62D08EA2E090D2B0889
:100A8000EE23090B200B262A08A648000009053F83
:100A90003F3F00790AA2D5200314300509B910029E
:100AA0000404B9080104A2D5200602500104200262
:100AB000689202B53A005034C0E07F203003197FBD
:100AC00030A20272067205500F120AECC202C20670
:100AD000C205C2087F30800F300503E9C0E012086C
:100AE0003B300503D0E0F9D0E0B53ACC3005177FB4
:100AF00030B9100C12083B7F583004077F78800310
:100B0000B9080312083B3002057F2D02083B7F2005
:100B10002008F87F2B2006F322920280CF286E75E2
:100B20006C6C2900D2011208003001F8C201783A39
:100B300030D50108F60208A62D5043495812080086
:100B40002403B405004001E4900B389312082C7480
:100B50003A12082CD203753A0402098BE4F5D390BB
:100B60000000E014604324FE607424FA7003020B5A
:100B7000F324096003020C011210EAEF700BE5097F
:100B80006007F508E4F5098005EF6002F509E5085E
:100B9000606FB42A05E4F508D20AE508B42305E439
:100BA000F508D20BE4F5088058200C07121085D206
:100BB0000C804E200D07120CBED20D8044300A145A
:100BC000C20A7BFF7A0E79F71208627BFF7A0F79EF
:100BD00009120862300B2AC20B1210178023050A73
:100BE0007BFF7A0F791BE50A75F064A4F52D1208D6
:100BF00062800EC2907B007A007922120EB8D290E9
:100C000000900000E004F0E0B40A02E4F022BB012E
:100C10000CE58229F582E5833AF583E0225006E966
:100C20002582F8E622BBFE06E92582F8E222E5826B
:100C300029F582E5833AF583E49322F8BB010DE5BB
:100C40008229F582E5833AF583E8F0225006E9250A
:100C500082C8F622BBFE05E92582C8F222BB010646
:100C600089828A83E0225002E722BBFE02E32289C6
:100C7000828A83E49322BB010689828A83F0225010
:100C800002F722BBFE01F322FAE6FB0808E6F9258B
:100C9000F0F618E6CA3AF622D083D082F8E49370D0
:100CA00012740193700DA3A393F8740193F58288D5
:100CB00083E4737402936860EFA3A3A380DFE590DD
:100CC000540F4430F590D29100C291E4F52A7F642C
:100CD0001210A7052AE52AC3942A40F2E590540F82
:100CE0004430F590D29100C2917F641210A7E59034
:100CF000540F4430F590D29100C2917F281210A772
:100D0000E590540F4420F590D29100C2917F2812B3
:100D100010A753900FD29100C2917F281210A7E51F
:100D200090540F44E0F590D29100C2917F281210A8
:100D3000A753900FD29100C2917F281210A7E5907F
:100D4000540F4460F590D29100C2917F281210A7F1
:100D5000D29322787FE4F6D8FD75813E020D9A0287
:100D60000FFAE493A3F8E493A34003F68001F2089A
:100D7000DFF48029E493A3F85407240CC8C333C4D8
:100D8000540F4420C8834004F456800146F6DFE443
:100D9000800B01020408102040809010B7E47E010F
:100DA0009360BCA3FF543F30E509541FFEE493A3B6
:100DB00060010ECF54C025E060A840B8E493A3FAC8
:100DC000E493A3F8E493A3C8C582C8CAC583CAF054
:100DD000A3C8C582C8CAC583CADFE9DEE780BEE40E
:100DE000FF43A604C2A20020A3037E310F20A50367
:100DF0007E340F20A6037E370F20A4037E2A0FD255
:100E0000A253A6FB43A602C2A10020A3037E320F79
:100E100020A5037E350F20A6037E380F20A4037E75
:100E2000300FD2A153A6FD43A601C2A00020A30308
:100E30007E330F20A5037E360F20A6037E390F20B8
:100E4000A4037E230FD2A053A6FEEF7002FF22EF71
:100E50006401AF0660027F7F228B2E8A2F8930E4E7
:100E6000FFFE753101E4FDAB2EAA2FA9308E8275ED
:100E70008300120C0E5531FCA805088002C313D85C
:100E8000FC6F5401FCBC010B630718EFC3132480F3
:100E9000FF8004EFC313FFE53125E0F5310DBD08F8
:100EA000C60EBE07BDAB2EAA2FA930900007120CAC
:100EB0000EB50702D322C3228B2A8A2B892C12104B
:100EC000CC50327F33120F99E4F52D120FDBAB2A91
:100ED000AA2BA92C852D82758300EF120C3B052DC2
:100EE000E52DC3940840E4AB2AAA2BA92C120E5975
:100EF000500122C322C3220D30313233343536370C
:100F00003839414243444546000A303132333435A2
:100F100036373839414243444546000D2025642088
:100F20003A2025640043A480C2877FF01210A77F77
:100F3000F01210A7D28753A47F7F461210A7A28772
:100F400092007FC81210A77FD21210A7A20022E53C
:100F500090540FFEEF54F04EF590D29100C291EFF5
:100F6000C454F0FFE590540F4FF590D29100C29118
:100F70007F280210A78F3EE53EB40D06C2937F8006
:100F8000800FE53EB40A06C2937FC08004D293AFBF
:100F90003E120F4FD2937F00228F2EE4F52FE52EC5
:100FA00030E00512104B800312105FE52EC313F5DD
:100FB0002E052FE52FC3940840E42243A480C28766
:100FC0007F061210A7D28753A47F7F091210A7A211
:100FD0008792007F371210A7A20022E4F52FF52E8A
:100FE000E52FC313F52F120FBB5003432F80052E9F
:100FF000E52EC3940840E9AF2F22E5EF20E106E596
:10100000EF30E30100121073E4F5D3D2AF300EFDE0
:10101000C20E120B5C80F6C2937F01120F4FE4F5F3
:101020002A7FA41210A7052AE52AC3940A40F2D207
:101030009322E59154045391FB7595DF7594727575
:1010400093DF75927343910442912243A480C28737
:101050007F061210A7D28753A47F7F400210A743B8
:10106000A480C2877F3C1210A7D28753A47F7F0A37
:101070000210A71210971210C31210E21210E612FB
:1010800010320210D54390F0D293C291D29243A570
:10109000F043A50EC29322E4F5A753D9BF75CE48FD
:1010A00075D22275D840221F800700000000000082
:1010B00000DFF700000022010800010900010A001A
:1010C000C10E0075A914E5A930E7FB22120F2540D7
:1010D00002D322C32275E68075A8802253917FD265
:1010E0000E3275A5012275E34022120DDF22120F88
:0210F000752267
:00000001FF
