:020000040000FA
:03000000020D5698
:0300230002108246
:0300730002112354
:10080000E539242DF8E6053922782A300702782DBB
:10081000E475F001120C8B020C602000EB7F2ED2ED
:10082000008018EF540F2490D43440D4FF30040BD0
:10083000EF24BFB41A0050032461FFE53A600215AB
:100840003A053DE53D7002053C30070D782AE47518
:10085000F001120C8BEF020C790211397403D207EC
:100860008003E4C207F5398B2A8A2B892CE4F53AF8
:10087000F53CF53DE53A60077F2012083B80F575B1
:100880003BFFC201C200C202C203C205C206C208C7
:10089000120809FF700D3007057F0012084CAF3DAC
:1008A000AE3C22B4255FC2D5C204120809FF24D091
:1008B000B40A00501A75F00A783A30D50508B6FF28
:1008C0000106C6A426F620D5047002D20380D924DE
:1008D000CFB41A00EF5004C2E5D204020A4CD20190
:1008E00080C6D20080C0D20280BCD2D580BAD205E8
:1008F00080B47F2012083B2002077401B53A004003
:10090000F1120800FF12083B020874D208D20680D8
:1009100095120800FB120800FA120800F94A4B7001
:1009200006791D7A0B7BFF20022EE53A602A7E00B5
:100930008E82758300120C1160060EEE653B70F01E
:10094000C2D5EBC0E0EAC0E0E9C0E0EE120A93D005
:10095000E0F9D0E0FAD0E0FB120C60FF60AAEBC037
:10096000E0EAC0E0E9C0E012083BD0E02401F9D0A1
:10097000E03400FAD0E0FBE53B0460DCD53BD980F5
:10098000877BFF7A0A798FD202809C791080027966
:1009900008C206C2088008D2D5790A8004790AC242
:1009A000D5E53B047002F53BE4FAFDFEFF120800BA
:1009B000FC7B08200113120800FD7B1030000A1296
:1009C0000800FE120800FF7B20EC3382D592D55040
:1009D00013C3E43000069FFFE49EFEE42001039D64
:1009E000FDE49CFCE4CBF8C201EC700CCFCECDCC86
:1009F000E824F8F870F38017C3EF33FFEE33FEED11
:100A000033FDEC33FCEB33FB994002FB0FD8E9EBF1
:100A1000300105F8D0E0C448B201C0E00AEC4D4E08
:100A20004F78207B0070C2EAB53B0040BCC0E012AA
:100A30000A95D0F0D0E0200104C4C0E0C4B201C0E7
:100A4000F0120824D0F0D5F0EB020874120C9B09C8
:100A50001153098B5808E24C08DE42098F4F099761
:100A60004409974908F743099D550981460981457D
:100A70000981470B3D5008E62D08EA2E090D2B0889
:100A8000EE23090B200B262A08A648000009053F83
:100A90003F3F00790AA2D5200314300509B910029E
:100AA0000404B9080104A2D5200602500104200262
:100AB000689202B53A005034C0E07F203003197FBD
:100AC00030A20272067205500F120AECC202C20670
:100AD000C205C2087F30800F300503E9C0E012086C
:100AE0003B300503D0E0F9D0E0B53ACC3005177FB4
:100AF00030B9100C12083B7F583004077F78800310
:100B0000B9080312083B3002057F2D02083B7F2005
:100B10002008F87F2B2006F322920280CF286E75E2
:100B20006C6C2900D2011208003001F8C201783A39
:100B300030D50108F60208A62D5043495812080086
:100B40002403B405004001E4900B389312082C7480
:100B50003A12082CD203753A0402098BE4F5D390BB
:100B60000000E014604524FE607624FA7003020B56
:100B7000F624096003020C04121135EF700BE5092D
:100B80006007F508E4F5098005EF6002F509E5085E
:100B90006072B42A07E4F508D299D20AE508B423B2
:100BA00005E4F508D20BE4F5088059200C07121073
:100BB000BED20C804F200D07120CC1D20D804530E3
:100BC0000A14C20A7BFF7A0E79FA1208627BFF7A56
:100BD0000F790C120862300B2BC20B1210388024D4
:100BE000050A7BFF7A0F791EE50A75F064A4F52DDE
:100BF00012086200800EC2907B007A007922120EE9
:100C0000BBD29000900000E004F0E0B40A02E4F0EF
:100C100022BB010CE58229F582E5833AF583E022C7
:100C20005006E92582F8E622BBFE06E92582F8E2B5
:100C300022E58229F582E5833AF583E49322F8BB25
:100C4000010DE58229F582E5833AF583E8F022502B
:100C500006E92582C8F622BBFE05E92582C8F222F4
:100C6000BB010689828A83E0225002E722BBFE0292
:100C7000E32289828A83E49322BB010689828A83E4
:100C8000F0225002F722BBFE01F322FAE6FB08082D
:100C9000E6F925F0F618E6CA3AF622D083D082F8B3
:100CA000E4937012740193700DA3A393F8740193ED
:100CB000F5828883E4737402936860EFA3A3A38032
:100CC000DFE590540F4430F590D29100C291E4F5E5
:100CD0002A7F641210E0052AE52AC3942A40F2E52F
:100CE00090540F4430F590D29100C2917F6412105D
:100CF000E0E590540F4430F590D29100C2917F28E6
:100D00001210E0E590540F4420F590D29100C2916A
:100D10007F281210E053900FD29100C2917F2812C9
:100D200010E0E590540F44E0F590D29100C2917F1D
:100D3000281210E053900FD29100C2917F28121018
:100D4000E0E590540F4460F590D29100C2917F2865
:100D50001210E0D29322787FE4F6D8FD75813E022E
:100D60000D9D02101BE493A3F8E493A34003F680C7
:100D700001F208DFF48029E493A3F85407240CC897
:100D8000C333C4540F4420C8834004F45680014642
:100D9000F6DFE4800B01020408102040809010F080
:100DA000E47E019360BCA3FF543F30E509541FFE6D
:100DB000E493A360010ECF54C025E060A840B8E4DE
:100DC00093A3FAE493A3F8E493A3C8C582C8CAC561
:100DD00083CAF0A3C8C582C8CAC583CADFE9DEE7F3
:100DE00080BEE4FF43A604C2A20020A3037E310F0D
:100DF00020A5037E340F20A6037E370F20A4037E98
:100E00002A0FD2A253A6FB43A602C2A10020A3032D
:100E10007E320F20A5037E350F20A6037E380F20DB
:100E2000A4037E300FD2A153A6FD43A601C2A000A9
:100E300020A3037E330F20A5037E360F20A6037E5A
:100E4000390F20A4037E230FD2A053A6FEEF700219
:100E5000FF22EF6401AF0660027F7F228B2E8A2F74
:100E60008930E4FFFE753101E4FDAB2EAA2FA930D5
:100E70008E82758300120C115531FCA80508800282
:100E8000C313D8FC6F5401FCBC010B630718EFC3FC
:100E9000132480FF8004EFC313FFE53125E0F53113
:100EA0000DBD08C60EBE07BDAB2EAA2FA9309000FF
:100EB00007120C11B50702D322C3228B2A8A2B8971
:100EC0002C12110550327F33120F9CE4F52D120FB6
:100ED000DEAB2AAA2BA92C852D82758300EF120C7C
:100EE0003E052DE52DC3940840E4AB2AAA2BA92C7E
:100EF000120E5C500122C322C3220D303132333432
:100F00003536373839414243444546000A3031329C
:100F100033343536373839414243444546000D2095
:100F20002564203A2025640043A480C2877FF01204
:100F300010E07FF01210E0D28753A47F7F4612109A
:100F4000E0A28792007FC81210E07FD21210E0A2C8
:100F50000022E590540FFEEF54F04EF590D2910030
:100F6000C291EFC454F0FFE590540F4FF590D29129
:100F700000C2917F280210E08F3EE53EB40D06C20C
:100F8000937F80800FE53EB40A06C2937FC0800441
:100F9000D293AF3E120F52D2937F00228F2EE4F5F0
:100FA0002FE52E30E00512109680031210AAE52ED0
:100FB000C313F52E052FE52FC3940840E42243A464
:100FC00080C2877F061210E0D28753A47F7F091268
:100FD00010E0A28792007F371210E0A20022E4F511
:100FE0002FF52EE52FC313F52F120FBE5003432FFD
:100FF00080052EE52EC3940840E9AF2F221210D0B1
:101000001210FC12112912112D12110E12106C1255
:10101000105312111512113102111CE5EF20E106D7
:10102000E5EF30E30100120FFDE4F5D3D2AF300E4F
:10103000FDC20E120B5C80F6C2937F01120F52E4C8
:10104000F52A7FA41210E0052AE52AC3940A40F28B
:10105000D29322E59154045391FB7595DF759472F8
:101060007593DF759273439104429122AF88538840
:10107000AF758DD5758BD5EF5440FEEF54104E42B1
:10108000882230990BC2997599333099FDC29932F3
:10109000309802C2983243A480C2877F061210E0C3
:1010A000D28753A47F7F400210E043A480C2877F91
:1010B0003C1210E0D28753A47F7F0A0210E04390D5
:1010C000F0D293C291D29243A5F043A50EC29322CF
:1010D000E4F5A753D9BF75CE4875D22275D8402202
:1010E0001F800700000000000000DFF70000002262
:1010F000010800010900010A00C10E0075A914E5EC
:10110000A930E7FB22120F284002D322C32275E345
:101110004075E101227589204388402275E680757B
:10112000A8902253917FD20E3275A4102275A5018A
:0D1130002243981022120DE222120F7822A5
:00000001FF
